{
  "_format": "hh-sol-artifact-1",
  "contractName": "MinorityGame",
  "sourceName": "contracts/MinorityGame.sol",
  "abi": [
    {
      "inputs": [
        {
          "internalType": "uint256",
          "name": "_ticketPrice",
          "type": "uint256"
        }
      ],
      "stateMutability": "nonpayable",
      "type": "constructor"
    },
    {
      "inputs": [
        {
          "internalType": "bytes32",
          "name": "",
          "type": "bytes32"
        }
      ],
      "name": "commitMap",
      "outputs": [
        {
          "internalType": "bool",
          "name": "",
          "type": "bool"
        }
      ],
      "stateMutability": "view",
      "type": "function"
    },
    {
      "inputs": [],
      "name": "emergencyRepay",
      "outputs": [],
      "stateMutability": "payable",
      "type": "function"
    },
    {
      "inputs": [],
      "name": "gameMaster",
      "outputs": [
        {
          "internalType": "address payable",
          "name": "",
          "type": "address"
        }
      ],
      "stateMutability": "view",
      "type": "function"
    },
    {
      "inputs": [],
      "name": "getBalance",
      "outputs": [
        {
          "internalType": "uint256",
          "name": "",
          "type": "uint256"
        }
      ],
      "stateMutability": "view",
      "type": "function"
    },
    {
      "inputs": [],
      "name": "getPlayersNumber",
      "outputs": [
        {
          "internalType": "uint256",
          "name": "",
          "type": "uint256"
        }
      ],
      "stateMutability": "view",
      "type": "function"
    },
    {
      "inputs": [
        {
          "internalType": "address",
          "name": "add",
          "type": "address"
        },
        {
          "internalType": "uint256",
          "name": "option",
          "type": "uint256"
        },
        {
          "internalType": "uint256",
          "name": "unix",
          "type": "uint256"
        },
        {
          "internalType": "string",
          "name": "salt",
          "type": "string"
        }
      ],
      "name": "hasher",
      "outputs": [
        {
          "internalType": "bytes32",
          "name": "",
          "type": "bytes32"
        }
      ],
      "stateMutability": "pure",
      "type": "function"
    },
    {
      "inputs": [
        {
          "internalType": "uint256",
          "name": "",
          "type": "uint256"
        }
      ],
      "name": "players",
      "outputs": [
        {
          "internalType": "address payable",
          "name": "",
          "type": "address"
        }
      ],
      "stateMutability": "view",
      "type": "function"
    },
    {
      "inputs": [],
      "name": "qid",
      "outputs": [
        {
          "internalType": "uint256",
          "name": "",
          "type": "uint256"
        }
      ],
      "stateMutability": "view",
      "type": "function"
    },
    {
      "inputs": [
        {
          "components": [
            {
              "internalType": "address",
              "name": "_address",
              "type": "address"
            },
            {
              "internalType": "uint256",
              "name": "option",
              "type": "uint256"
            },
            {
              "internalType": "uint256",
              "name": "unix",
              "type": "uint256"
            },
            {
              "internalType": "string",
              "name": "salt",
              "type": "string"
            }
          ],
          "internalType": "struct MinorityGame.Vote[]",
          "name": "votes",
          "type": "tuple[]"
        }
      ],
      "name": "reveal",
      "outputs": [],
      "stateMutability": "payable",
      "type": "function"
    },
    {
      "inputs": [],
      "name": "ticketPrice",
      "outputs": [
        {
          "internalType": "uint256",
          "name": "",
          "type": "uint256"
        }
      ],
      "stateMutability": "view",
      "type": "function"
    },
    {
      "inputs": [
        {
          "internalType": "bytes32",
          "name": "commitHash",
          "type": "bytes32"
        }
      ],
      "name": "vote",
      "outputs": [],
      "stateMutability": "payable",
      "type": "function"
    }
  ],
  "bytecode": "0x60806040523480156200001157600080fd5b5060405162001fbe38038062001fbe8339818101604052810190620000379190620000cd565b336000806101000a81548173ffffffffffffffffffffffffffffffffffffffff021916908373ffffffffffffffffffffffffffffffffffffffff16021790555080600181905550600160068190555050620000ff565b600080fd5b6000819050919050565b620000a78162000092565b8114620000b357600080fd5b50565b600081519050620000c7816200009c565b92915050565b600060208284031215620000e657620000e56200008d565b5b6000620000f684828501620000b6565b91505092915050565b611eaf806200010f6000396000f3fe60806040526004361061009c5760003560e01c8063a69beaba11610064578063a69beaba14610148578063bdf84ae714610164578063cec4edee1461018f578063e3ecf3c7146101cc578063f71d96cb14610209578063fbcf4b3e146102465761009c565b806310c82a3b146100a157806312065fe0146100bd5780631209b1f6146100e857806374e9cf3414610113578063766eef111461011d575b600080fd5b6100bb60048036038101906100b691906115da565b610271565b005b3480156100c957600080fd5b506100d2610914565b6040516100df9190611632565b60405180910390f35b3480156100f457600080fd5b506100fd61091c565b60405161010a9190611632565b60405180910390f35b61011b610922565b005b34801561012957600080fd5b50610132610ba6565b60405161013f9190611632565b60405180910390f35b610162600480360381019061015d9190611683565b610bb3565b005b34801561017057600080fd5b50610179610cff565b60405161018691906116d1565b60405180910390f35b34801561019b57600080fd5b506101b660048036038101906101b19190611683565b610d23565b6040516101c39190611707565b60405180910390f35b3480156101d857600080fd5b506101f360048036038101906101ee9190611722565b610d43565b60405161020091906117b4565b60405180910390f35b34801561021557600080fd5b50610230600480360381019061022b91906117cf565b610d7c565b60405161023d91906116d1565b60405180910390f35b34801561025257600080fd5b5061025b610dbb565b6040516102689190611632565b60405180910390f35b60008054906101000a900473ffffffffffffffffffffffffffffffffffffffff1673ffffffffffffffffffffffffffffffffffffffff163373ffffffffffffffffffffffffffffffffffffffff16146102ff576040517f08c379a00000000000000000000000000000000000000000000000000000000081526004016102f69061187f565b60405180910390fd5b80516003805490501461033a5761032d604051806080016040528060448152602001611e0160449139610dc1565b610335610922565b6107d7565b60005b81518110156105c657600082828151811061035b5761035a61189f565b5b602002602001015160200151036103f25760048282815181106103815761038061189f565b5b6020026020010151600001519080600181540180825580915050600190039060005260206000200160009091909190916101000a81548173ffffffffffffffffffffffffffffffffffffffff021916908373ffffffffffffffffffffffffffffffffffffffff1602179055506104ce565b60018282815181106104075761040661189f565b5b6020026020010151602001510361049e57600582828151811061042d5761042c61189f565b5b6020026020010151600001519080600181540180825580915050600190039060005260206000200160009091909190916101000a81548173ffffffffffffffffffffffffffffffffffffffff021916908373ffffffffffffffffffffffffffffffffffffffff1602179055506104cd565b6104bf604051806060016040528060348152602001611dcd60349139610dc1565b6104c7610922565b506107d7565b5b60006105548383815181106104e6576104e561189f565b5b6020026020010151600001518484815181106105055761050461189f565b5b6020026020010151602001518585815181106105245761052361189f565b5b6020026020010151604001518686815181106105435761054261189f565b5b602002602001015160600151610d43565b9050600115156002600083815260200190815260200160002060009054906101000a900460ff161515146105b2576105a3604051806060016040528060358152602001611e4560359139610dc1565b6105ab610922565b50506107d7565b5080806105be906118fd565b91505061033d565b5060058054905060048054905011156106b7576106236040518060400160405280601881526020017f5b44454255472072657665616c5d206f7074312077696e730000000000000000815250600480549050600580549050610e5a565b6106b260058054806020026020016040519081016040528092919081815260200182805480156106a857602002820191906000526020600020905b8160009054906101000a900473ffffffffffffffffffffffffffffffffffffffff1673ffffffffffffffffffffffffffffffffffffffff168152602001906001019080831161065e575b5050505050610ef9565b6107d6565b60058054905060048054905010156107a7576107136040518060400160405280601881526020017f5b44454255472072657665616c5d206f7074302077696e730000000000000000815250600480549050600580549050610e5a565b6107a2600480548060200260200160405190810160405280929190818152602001828054801561079857602002820191906000526020600020905b8160009054906101000a900473ffffffffffffffffffffffffffffffffffffffff1673ffffffffffffffffffffffffffffffffffffffff168152602001906001019080831161074e575b5050505050610ef9565b6107d5565b6107c8604051806060016040528060388152602001611d9560389139610dc1565b6107d0610922565b6107d7565b5b5b600067ffffffffffffffff8111156107f2576107f1611292565b5b6040519080825280602002602001820160405280156108205781602001602082028036833780820191505090505b50600390805190602001906108369291906111c1565b50600067ffffffffffffffff81111561085257610851611292565b5b6040519080825280602002602001820160405280156108805781602001602082028036833780820191505090505b50600490805190602001906108969291906111c1565b50600067ffffffffffffffff8111156108b2576108b1611292565b5b6040519080825280602002602001820160405280156108e05781602001602082028036833780820191505090505b50600590805190602001906108f69291906111c1565b5060016006600082825461090a9190611945565b9250508190555050565b600047905090565b60015481565b60008054906101000a900473ffffffffffffffffffffffffffffffffffffffff1673ffffffffffffffffffffffffffffffffffffffff163373ffffffffffffffffffffffffffffffffffffffff16146109b0576040517f08c379a00000000000000000000000000000000000000000000000000000000081526004016109a79061187f565b60405180910390fd5b60005b600380549050811015610a6957600381815481106109d4576109d361189f565b5b9060005260206000200160009054906101000a900473ffffffffffffffffffffffffffffffffffffffff1673ffffffffffffffffffffffffffffffffffffffff166108fc633b9aca00600154610a2a919061199b565b9081150290604051600060405180830381858888f19350505050158015610a55573d6000803e3d6000fd5b508080610a61906118fd565b9150506109b3565b50600067ffffffffffffffff811115610a8557610a84611292565b5b604051908082528060200260200182016040528015610ab35781602001602082028036833780820191505090505b5060039080519060200190610ac99291906111c1565b50600067ffffffffffffffff811115610ae557610ae4611292565b5b604051908082528060200260200182016040528015610b135781602001602082028036833780820191505090505b5060049080519060200190610b299291906111c1565b50600067ffffffffffffffff811115610b4557610b44611292565b5b604051908082528060200260200182016040528015610b735781602001602082028036833780820191505090505b5060059080519060200190610b899291906111c1565b50600160066000828254610b9d9190611945565b92505081905550565b6000600380549050905090565b633b9aca00600154610bc5919061199b565b3414610c06576040517f08c379a0000000000000000000000000000000000000000000000000000000008152600401610bfd90611a67565b60405180910390fd5b6003339080600181540180825580915050600190039060005260206000200160009091909190916101000a81548173ffffffffffffffffffffffffffffffffffffffff021916908373ffffffffffffffffffffffffffffffffffffffff160217905550600015156002600083815260200190815260200160002060009054906101000a900460ff16151514610cd0576040517f08c379a0000000000000000000000000000000000000000000000000000000008152600401610cc790611ad3565b60405180910390fd5b60016002600083815260200190815260200160002060006101000a81548160ff02191690831515021790555050565b60008054906101000a900473ffffffffffffffffffffffffffffffffffffffff1681565b60026020528060005260406000206000915054906101000a900460ff1681565b600084848484604051602001610d5c9493929190611bd6565b604051602081830303815290604052805190602001209050949350505050565b60038181548110610d8c57600080fd5b906000526020600020016000915054906101000a900473ffffffffffffffffffffffffffffffffffffffff1681565b60065481565b610e5781604051602401610dd59190611c59565b6040516020818303038152906040527f41304fac000000000000000000000000000000000000000000000000000000007bffffffffffffffffffffffffffffffffffffffffffffffffffffffff19166020820180517bffffffffffffffffffffffffffffffffffffffffffffffffffffffff83818316178352505050506110fc565b50565b610ef4838383604051602401610e7293929190611c7b565b6040516020818303038152906040527fca47c4eb000000000000000000000000000000000000000000000000000000007bffffffffffffffffffffffffffffffffffffffffffffffffffffffff19166020820180517bffffffffffffffffffffffffffffffffffffffffffffffffffffffff83818316178352505050506110fc565b505050565b60008054906101000a900473ffffffffffffffffffffffffffffffffffffffff1673ffffffffffffffffffffffffffffffffffffffff163373ffffffffffffffffffffffffffffffffffffffff1614610f87576040517f08c379a0000000000000000000000000000000000000000000000000000000008152600401610f7e9061187f565b60405180910390fd5b6000815103610fbe57610fb1604051806060016040528060228152602001611d7360229139610dc1565b610fb9610922565b6110f9565b60006064600547610fcf919061199b565b610fd99190611ce8565b905060008054906101000a900473ffffffffffffffffffffffffffffffffffffffff1673ffffffffffffffffffffffffffffffffffffffff166108fc829081150290604051600060405180830381858888f19350505050158015611041573d6000803e3d6000fd5b5060008251476110519190611ce8565b9050611075604051806060016040528060298152602001611d4a6029913982611125565b60005b83518110156110f5578381815181106110945761109361189f565b5b602002602001015173ffffffffffffffffffffffffffffffffffffffff166108fc839081150290604051600060405180830381858888f193505050501580156110e1573d6000803e3d6000fd5b5080806110ed906118fd565b915050611078565b5050505b50565b60008151905060006a636f6e736f6c652e6c6f679050602083016000808483855afa5050505050565b6111bd828260405160240161113b929190611d19565b6040516020818303038152906040527fb60e72cc000000000000000000000000000000000000000000000000000000007bffffffffffffffffffffffffffffffffffffffffffffffffffffffff19166020820180517bffffffffffffffffffffffffffffffffffffffffffffffffffffffff83818316178352505050506110fc565b5050565b82805482825590600052602060002090810192821561123a579160200282015b828111156112395782518260006101000a81548173ffffffffffffffffffffffffffffffffffffffff021916908373ffffffffffffffffffffffffffffffffffffffff160217905550916020019190600101906111e1565b5b509050611247919061124b565b5090565b5b8082111561126457600081600090555060010161124c565b5090565b6000604051905090565b600080fd5b600080fd5b600080fd5b6000601f19601f8301169050919050565b7f4e487b7100000000000000000000000000000000000000000000000000000000600052604160045260246000fd5b6112ca82611281565b810181811067ffffffffffffffff821117156112e9576112e8611292565b5b80604052505050565b60006112fc611268565b905061130882826112c1565b919050565b600067ffffffffffffffff82111561132857611327611292565b5b602082029050602081019050919050565b600080fd5b600080fd5b600080fd5b600073ffffffffffffffffffffffffffffffffffffffff82169050919050565b600061137382611348565b9050919050565b61138381611368565b811461138e57600080fd5b50565b6000813590506113a08161137a565b92915050565b6000819050919050565b6113b9816113a6565b81146113c457600080fd5b50565b6000813590506113d6816113b0565b92915050565b600080fd5b600067ffffffffffffffff8211156113fc576113fb611292565b5b61140582611281565b9050602081019050919050565b82818337600083830152505050565b600061143461142f846113e1565b6112f2565b9050828152602081018484840111156114505761144f6113dc565b5b61145b848285611412565b509392505050565b600082601f8301126114785761147761127c565b5b8135611488848260208601611421565b91505092915050565b6000608082840312156114a7576114a661133e565b5b6114b160806112f2565b905060006114c184828501611391565b60008301525060206114d5848285016113c7565b60208301525060406114e9848285016113c7565b604083015250606082013567ffffffffffffffff81111561150d5761150c611343565b5b61151984828501611463565b60608301525092915050565b60006115386115338461130d565b6112f2565b9050808382526020820190506020840283018581111561155b5761155a611339565b5b835b818110156115a257803567ffffffffffffffff8111156115805761157f61127c565b5b80860161158d8982611491565b8552602085019450505060208101905061155d565b5050509392505050565b600082601f8301126115c1576115c061127c565b5b81356115d1848260208601611525565b91505092915050565b6000602082840312156115f0576115ef611272565b5b600082013567ffffffffffffffff81111561160e5761160d611277565b5b61161a848285016115ac565b91505092915050565b61162c816113a6565b82525050565b60006020820190506116476000830184611623565b92915050565b6000819050919050565b6116608161164d565b811461166b57600080fd5b50565b60008135905061167d81611657565b92915050565b60006020828403121561169957611698611272565b5b60006116a78482850161166e565b91505092915050565b60006116bb82611348565b9050919050565b6116cb816116b0565b82525050565b60006020820190506116e660008301846116c2565b92915050565b60008115159050919050565b611701816116ec565b82525050565b600060208201905061171c60008301846116f8565b92915050565b6000806000806080858703121561173c5761173b611272565b5b600061174a87828801611391565b945050602061175b878288016113c7565b935050604061176c878288016113c7565b925050606085013567ffffffffffffffff81111561178d5761178c611277565b5b61179987828801611463565b91505092959194509250565b6117ae8161164d565b82525050565b60006020820190506117c960008301846117a5565b92915050565b6000602082840312156117e5576117e4611272565b5b60006117f3848285016113c7565b91505092915050565b600082825260208201905092915050565b7f4f6e6c792047616d654d61737465722063616e2063616c6c207468697320667560008201527f6e6374696f6e0000000000000000000000000000000000000000000000000000602082015250565b60006118696026836117fc565b91506118748261180d565b604082019050919050565b600060208201905081810360008301526118988161185c565b9050919050565b7f4e487b7100000000000000000000000000000000000000000000000000000000600052603260045260246000fd5b7f4e487b7100000000000000000000000000000000000000000000000000000000600052601160045260246000fd5b6000611908826113a6565b91507fffffffffffffffffffffffffffffffffffffffffffffffffffffffffffffffff820361193a576119396118ce565b5b600182019050919050565b6000611950826113a6565b915061195b836113a6565b9250827fffffffffffffffffffffffffffffffffffffffffffffffffffffffffffffffff038211156119905761198f6118ce565b5b828201905092915050565b60006119a6826113a6565b91506119b1836113a6565b9250817fffffffffffffffffffffffffffffffffffffffffffffffffffffffffffffffff04831182151516156119ea576119e96118ce565b5b828202905092915050565b7f6d73672e76616c756520646f6573206e6f7420657175616c207469636b65745060008201527f7269636500000000000000000000000000000000000000000000000000000000602082015250565b6000611a516024836117fc565b9150611a5c826119f5565b604082019050919050565b60006020820190508181036000830152611a8081611a44565b9050919050565b7f766f746520616c72656164792065786973747300000000000000000000000000600082015250565b6000611abd6013836117fc565b9150611ac882611a87565b602082019050919050565b60006020820190508181036000830152611aec81611ab0565b9050919050565b60008160601b9050919050565b6000611b0b82611af3565b9050919050565b6000611b1d82611b00565b9050919050565b611b35611b3082611368565b611b12565b82525050565b6000819050919050565b611b56611b51826113a6565b611b3b565b82525050565b600081519050919050565b600081905092915050565b60005b83811015611b90578082015181840152602081019050611b75565b83811115611b9f576000848401525b50505050565b6000611bb082611b5c565b611bba8185611b67565b9350611bca818560208601611b72565b80840191505092915050565b6000611be28287611b24565b601482019150611bf28286611b45565b602082019150611c028285611b45565b602082019150611c128284611ba5565b915081905095945050505050565b6000611c2b82611b5c565b611c3581856117fc565b9350611c45818560208601611b72565b611c4e81611281565b840191505092915050565b60006020820190508181036000830152611c738184611c20565b905092915050565b60006060820190508181036000830152611c958186611c20565b9050611ca46020830185611623565b611cb16040830184611623565b949350505050565b7f4e487b7100000000000000000000000000000000000000000000000000000000600052601260045260246000fd5b6000611cf3826113a6565b9150611cfe836113a6565b925082611d0e57611d0d611cb9565b5b828204905092915050565b60006040820190508181036000830152611d338185611c20565b9050611d426020830184611623565b939250505056fe5b444542554720646973747269627574655072697a655d2077696e6e696e67416d6f756e743a2025735b444542554720646973747269627574655072697a655d204e6f2077696e6e6572735b44454255472072657665616c5d206e656974686572206f7030206e6f72206f70312077696e732c20656d657267656e63792072657061795b44454255472072657665616c5d20556e657870656374656420766f746520646174612c20656d657267656e63792072657061795b44454255472072657665616c5d204e756d626572206f6620766f74657320213d206e756d626572206f6620706c61796572732c20656d657267656e63792072657061795b44454255472072657665616c5d20436f6d6d69742068617368206e6f7420666f756e642c20656d657267656e6379207265706179a264697066735822122037ab03ccf3de5014836686e22c02cd48f78fa720fea60e575b227629831f30df64736f6c634300080f0033",
  "linkReferences": {},
  "deployedLinkReferences": {}
}